:100000000C9462000C948A000C948A000C948A0070
:100010000C948A000C948A000C948A000C948A0038
:100020000C948A000C948A000C948A000C948A0028
:100030000C948A000C948A000C948A000C948A0018
:100040000C948A080C948A000C94FA080C94D40836
:100050000C948A000C948A000C948A000C948A00F8
:100060000C946B070C948A0000000000230026000B
:10007000290000000000240027002A0000000000E2
:10008000250028002B0004040404040404040202D4
:100090000202020203030303030301020408102007
:1000A0004080010204081020010204081020000012
:1000B0000008000201000003040700000000000027
:1000C00000002C0911241FBECFEFD8E0DEBFCDBF4A
:1000D00011E0A0E0B1E0ECE4F2E202C005900D9284
:1000E000A235B107D9F723E0A2E5B1E001C01D9226
:1000F000AE37B207E1F710E0C2E6D0E004C02197C6
:10010000FE010E94E70EC136D107C9F70E94820A9C
:100110000C9424110C9400009FB7F894A7ECB1E064
:100120009196ED91FC919297808190962C91822BE3
:1001300080839FBF08959FB7F894A7ECB1E05E96C7
:10014000ED91FC915F9780815D962C91822B80834D
:100150009FBF08959FB7F894A7ECB1E05B96ED912F
:10016000FC915C9780815A962C91822B80839FBF53
:1001700008958F929F92AF92BF92CF92DF92EF92AB
:10018000FF920F931F93CF93DF93D0E0C0E0D12C69
:10019000082F880F110B8BE0E82EF12C812C912C6D
:1001A00054018394CC2EC8010C2E02C095958795DE
:1001B0000A94E2F780FF3FC00E949B008FB7F8943B
:1001C000E091E201F091E30120819091E1019095AD
:1001D000922390838FBFC7010197F1F7E091EB0164
:1001E000F091EC0180819091EA01892351F0D501D1
:1001F000C40104C0880F991FAA1FBB1FCA94D2F75D
:10020000D82A0E94AA002196C830D10559F60E942A
:100210009B0087E090E00197F1F78D2DDF91CF9162
:100220001F910F91FF90EF90DF90CF90BF90AF9014
:100230009F908F9008959FB7F894E091E501F09119
:10024000E60120818091E4018095822380839FBF15
:10025000B5CF9FB7F894A7ECB1E09196ED91FC91E2
:100260009297208190968C918095822380839FBF66
:10027000089520919E01260F3327331F2132310527
:10028000ECF420911B02FC0190E080E0243069F046
:1002900082E00895A0919E012191AC0144585E4FE7
:1002A000A40FB52FB11D2C930196861798F380915A
:1002B0009E01680F60939E0180E0089581E008959B
:1002C000089508950895E0917A0180917901E817E1
:1002D00030F4F0E0E75AFE4F808190E008958FEF10
:1002E0009FEF089590917A01809179012FEF3FEF70
:1002F000981748F4E92FF0E0E75AFE4F208130E0EC
:100300009F5F90937A01C90108958091790190913E
:100310007A01891B990B0895CF92DF92EF92FF9299
:100320000F931F93CF93DF937C01CB018A01209120
:100330002102222389F0EB016B01C40ED51ECC15DE
:10034000DD0569F06991D701ED91FC910190F08193
:10035000E02DC7010995F3CF642F0E943901C80130
:10036000DF91CF911F910F91FF90EF90DF90CF9091
:100370000895CF93DF931F92CDB7DEB769832091A5
:1003800021022223F9F020914402203258F021E08A
:1003900030E0FC013383228390E080E00F90DF9116
:1003A000CF91089580912202E82FF0E0ED5DFD4F9E
:1003B000998190838F5F809322028093440281E031
:1003C00090E0ECCF61E0CE0101960E943901F7CFB9
:1003D000682F85E492E00C94B901FC01538D448DA3
:1003E000252F30E0842F90E0821B930B541710F0E0
:1003F000CF96089501970895FC01918D828D9817ED
:1004000061F0A28DAE0FBF2FB11D5D968C91928DC4
:100410009F5F9F73928F90E008958FEF9FEF0895F5
:10042000FC01918D828D981731F0828DE80FF11DBE
:10043000858D90E008958FEF9FEF0895FC01918DD9
:10044000228D892F90E0805C9F4F821B91098F73D2
:1004500099270895FC01A48DA80FB92FB11DA35AA7
:10046000BF4F2C91848D90E001968F739927848FD4
:10047000A689B7892C93A089B1898C9183708064F7
:100480008C93938D848D981306C00288F389E02D98
:1004900080818F7D80830895EF92FF920F931F9349
:1004A000CF93DF93EC0181E0888F9B8D8C8D981327
:1004B0001AC0E889F989808185FF15C09FB7F89433
:1004C000EE89FF896083E889F9898081837080647F
:1004D00080839FBF81E090E0DF91CF911F910F91CA
:1004E000FF90EF900895F62E0B8D10E00F5F1F4FD9
:1004F0000F731127E02E8C8D8E110CC00FB607FCE8
:10050000FACFE889F989808185FFF5CFCE010E9475
:100510002A02F1CFEB8DEC0FFD2FF11DE35AFF4FB7
:10052000F0829FB7F8940B8FEA89FB898081806203
:10053000CFCFCF93DF93EC01888D8823B9F0AA89C0
:10054000BB89E889F9898C9185FD03C0808186FD8E
:100550000DC00FB607FCF7CF8C9185FFF2CF8081DD
:1005600085FFEDCFCE010E942A02E9CFDF91CF9126
:10057000089581E592E00E941E0221E0892B09F492
:1005800020E0822F089580E090E0892B29F00E94DE
:10059000B90281110C940000089590E0FC01E2552D
:1005A000FF4F2491FC01E656FF4F3491FC01EA57BE
:1005B000FF4FE491EE23C9F0222339F0233001F1FB
:1005C000A8F4213019F1223029F1F0E0EE0FFF1FDD
:1005D000E458FF4FA591B4918FB7F894EC91611155
:1005E00026C030953E233C938FBF08952730A9F055
:1005F0002830C9F0243049F7809180008F7D03C0F6
:10060000809180008F7780938000DFCF84B58F77D3
:1006100084BDDBCF84B58F7DFBCF8091B0008F7719
:100620008093B000D2CF8091B0008F7DF9CF3E2B68
:10063000DACF10921B0281E080931A021092F5012A
:1006400061E082E10E94CD0261E083E10E94CD027F
:10065000E9EBF0E080818E7F808380818D7F8083D5
:1006600088E48093B80085E48093BC000895CF931C
:10067000DF9391E090937B018823B9F0C091B8009B
:10068000D091BA008091BC008A7B8093BC0060E06E
:1006900082E10E94CD0260E083E10E94CD020E94CF
:1006A0001903D093BA00C093B800DF91CF91089599
:1006B000CF93DF9390E0FC01E656FF4F24918A57D9
:1006C0009F4FFC0184918823D1F090E0880F991FFF
:1006D000FC01EE58FF4FA591B491FC01E458FF4F87
:1006E000C591D49161110EC09FB7F8948C91E22FFF
:1006F000E0958E238C932881E223E8839FBFDF91CE
:10070000CF9108958FB7F894EC91E22BEC938FBFC3
:10071000F6CF3FB7F8948091550190915601A09182
:100720005701B091580126B5A89B05C02F3F19F07D
:100730000196A11DB11D3FBFBA2FA92F982F882761
:10074000BC01CD01620F711D811D911D42E0660F3C
:10075000771F881F991F4A95D1F708958F929F920E
:10076000AF92BF92CF92DF92EF92FF920F931F93BF
:10077000CF93DF93D0914402D13208F0D7C0182F25
:10078000C09143020E9489036B017C0180911B028E
:1007900081116BC082E080931B0210931A028FEFCD
:1007A0008093190210921802D0931702A3E2B2E0CC
:1007B000E7EFF1E080E0D81391C01092F60180914C
:1007C000F601CC0FC82BC093F6018091F501813062
:1007D00009F088C01092F5010E9489036B017C0129
:1007E0008091F6018093BB0080911D0290911E02C2
:1007F000A0911F02B0912002892B8A2B8B2BA1F094
:100800000E94890300911D0210911E0220911F0277
:10081000309120026C197D098E099F090617170770
:100820002807390708F442C08091BC0083FDD8CF67
:1008300085EC8093BC000E9489036B017C01809150
:100840001B02823009F450C0809119028F3F09F4D5
:100850006FC080911902803209F46CC08091190236
:10086000803309F469C084E026C080911D02909114
:100870001E02A0911F02B0912002892B8A2B8B2B84
:1008800009F484CF0E94890380901D0290901E027B
:10089000A0901F02B09020026C197D098E099F095B
:1008A00086169706A806B90608F070CF80911C023C
:1008B0000E94370385E010922202109244021092A7
:1008C0002102DF91CF911F910F91FF90EF90DF9068
:1008D000CF90BF90AF909F908F9008959D919193EE
:1008E0008F5F69CF85EEA5CF80911D0290911E028A
:1008F000A0911F02B0912002892B8A2B8B2B09F427
:100900009ECF0E94890300911D0210911E0220912A
:100910001F02309120026C197D098E099F0906176C
:1009200017072807390708F08ACFC0CF81E0C3CF67
:1009300080E0C1CF82E0BFCF83E0BDCF0F931F9394
:10094000CF93DF93042FD52F122FC32FFC0180816B
:1009500091E0909321028093430210922202109220
:100960004402F4E06F9FB00111246A5F7F4F85E479
:1009700092E00E94B901802F9D2F0E94E8018D2FE7
:1009800090E00E94E801812F9C2F0E94E8018C2FAB
:1009900090E00E94E80181E0DF91CF911F910F91DB
:1009A0000C94AE03CF93C62F9091450321E0209382
:1009B0002102909343021092220210924402682F67
:1009C00085E492E00E94B9016C2F85E492E00E94D8
:1009D000B90181E0CF910C94AE038F929F92AF92B8
:1009E000BF92CF92DF92EF92FF926B017C010E9447
:1009F00089034B015C01C114D104E104F104B9F095
:100A00000E948903681979098A099B09683E734025
:100A10008105910580F321E0C21AD108E108F108AF
:100A200088EE880E83E0981EA11CB11CE4CFFF90D5
:100A3000EF90DF90CF90BF90AF909F908F900895F0
:100A4000EF92FF920F931F93CF93DF937C01062FBA
:100A50000E942901E70110E0CE018E199F0980173D
:100A6000910724F489910E94B900F6CF0E948C006E
:100A70006091F10170E090E080E0DF91CF911F91F3
:100A80000F91FF90EF900C94ED0465E080E291E00F
:100A90000E94200569E087E191E00E942005809195
:100AA000F301882329F065E082E191E00E942005AE
:100AB0008091F401882329F069E089E091E00E94A7
:100AC000200569E080E091E00C942005AF92BF9290
:100AD000CF92DF92EF92FF920F931F93CF93DF930A
:100AE0006C017B018B01040F151FEB015E01AE1839
:100AF000BF08C017D10759F06991D601ED91FC915B
:100B00000190F081E02DC6010995892B79F7C50187
:100B1000DF91CF911F910F91FF90EF90DF90CF90D9
:100B2000BF90AF90089590E080E008959A01895BAE
:100B30009F4F211540E1340730F030E020E040E0E5
:100B400050E10C949E0450E040E0FBCF1F93CF9304
:100B5000DF93EC01162F70E090E080E00E9402101D
:100B600020E030E044EB52E40E945F0F20E030E0F0
:100B700040E05FE30E94EE0E20E030E04AE754E4FC
:100B80000E94B71020E030E44CE950E40E945F0F6F
:100B90000E94D10FAB0168818B819C810E949605D8
:100BA0001E83DF91CF911F9108956F927F928F9254
:100BB0009F92AF92BF92CF92DF92EF92FF921F93DC
:100BC000CF93DF93CDB7DEB729970FB6F894DEBF8A
:100BD0000FBECDBF2FB7F8946091C3017091C401CF
:100BE0008091C5019091C6012FBFC090ED01D090BA
:100BF000EE01E090EF01F090F0016C197D098E0993
:100C00009F090E9400106B017C0120E030E84BEB53
:100C100054E40E94B210181614F40E944505609125
:100C2000F10170E090E080E00E9402104B015C0155
:100C3000AC019B01C701B6010E945A0F87FF0AC091
:100C4000A7019601C501B4010E94ED0E0E94D10FCB
:100C50000E94ED04FE01339687E0DF011D928A9524
:100C6000E9F781E0898382E48A8315E027E0C22ED8
:100C7000D12C7E01BAE0EB0EF11C3CEDA32E31E04D
:100C8000B32E0E949B000E94AA000E942901C60167
:100C90000197F1F7FE0131963F0197EC892E91E023
:100CA000992ED3018D913D010E94B900F4018193E9
:100CB0004F016E147F04A9F78091C801893769F448
:100CC00080ED882E81E0982E80E00E94B900D4014A
:100CD0008D934D01AA16BB06B9F70E948C00809136
:100CE000C801807F803761F00E9445056091F10165
:100CF00070E090E080E00E94ED04115009F0C1CF57
:100D00008091C801807F803739F08091F1018A306D
:100D100018F48F5F8093F1018091DF019091E001E1
:100D20009093DE018093DD018091CA019091CB0107
:100D30009093E0018093DF012FB7F8948091C30175
:100D40009091C401A091C501B091C6012FBF8093BD
:100D5000ED019093EE01A093EF01B093F00190911B
:100D6000C801907F81E0903709F080E029960FB6A6
:100D7000F894DEBF0FBECDBFDF91CF911F91FF90E2
:100D8000EF90DF90CF90BF90AF909F908F907F902B
:100D90006F900895CF93DF93EC016B836230D1F1B4
:100DA00028F4613001F1DF91CF910895633009F4A7
:100DB00043C06430C1F78C819D8130E020E050E079
:100DC00040E06981895B9F4F0E949E048C819D81D8
:100DD00030E020E050E040E06A81895B9F4FDF9186
:100DE000CF910C949E048C819D8130E020E050E0F6
:100DF00040E06A81895B9F4F0E949E04488180E1A8
:100E0000489FA001112469818C819D81DF91CF9140
:100E10000C9496058C819D8130E020E050E040E00C
:100E20006981895B9F4F0E949E04488180E1489FB1
:100E3000A00111246A81E8CF8C819D8130E020E0FF
:100E400040E050E16981895B9F4F0E949E048C8144
:100E50009D8130E020E040E050E1BECFFC016083A6
:100E600063810C94CA0685ED8093BC0080911D02BD
:100E700090911E02A0911F02B09120020796A11D21
:100E8000B11D23E0B695A795979587952A95D1F73B
:100E90002091BC0024FD03C010921B0208954091D4
:100EA0001D0250911E0260911F0270912002452B7D
:100EB000462B472B69F30097A105B10541F025E3C7
:100EC0002A95F1F700000197A109B109E1CF8091BE
:100ED0001C020C9437031F920F920FB60F9211242D
:100EE0002F933F934F935F936F937F938F939F9332
:100EF000AF93BF93EF93FF938091B900887F8036C3
:100F000009F44AC0F0F5883209F4A7C018F5803119
:100F100009F49BC0B8F4882309F4F9C0883009F4B7
:100F200094C0FF91EF91BF91AF919F918F917F916D
:100F30006F915F914F913F912F910F900FBE0F9046
:100F40001F901895883109F488C0803251F780933A
:100F5000190214C0803409F49DC040F48033B9F301
:100F60008833F9F68093190285ECB0C0803509F416
:100F700085C0883509F496C0883499F60E943307F5
:100F8000D0CF883909F48CC038F5883729F050F46F
:100F9000883611F0803729F683E080931B02109287
:100FA000C20157C0883809F47BC0803919F08038F5
:100FB00009F0B7CF8091C201803208F071C0E09192
:100FC000C20181E08E0F8093C2018091BB00F0E0EE
:100FD000EE55FE4F80833DC0803B39F0E0F4803A0F
:100FE00009F479C0883A09F09CCF84E080931B0211
:100FF00010929F0110929E01E0919C01F0919D0141
:10100000099580919E0181110FC081E080939E011E
:1010100010927C0109C0803C09F4A6CF883C09F4F9
:10102000A3CF883B09F07DCFE0919F0181E08E0F37
:1010300080939F01F0E0E458FE4F80818093BB00D5
:1010400090919F0180919E0129C08091F60180932B
:10105000BB0085EC8093BC0064CF90911802809116
:101060001702981758F5E091180281E08E0F8093CF
:101070001802F0E0E950FE4F8081E9CFE0911802BC
:1010800081E08E0F809318028091BB00F0E0E95060
:10109000FE4F808390911802809117029817C8F232
:1010A00085E8D8CFE091180281E08E0F8093180276
:1010B0008091BB00F0E0E950FE4F808380911A02DE
:1010C00081115CCF81E08093F50184EA8093BC00BC
:1010D00010921B0226CF85EC8093BC0010921B025D
:1010E0008091C201803230F4E091C201F0E0EE550F
:1010F000FE4F10826091C20170E0E091A001F0917A
:10110000A10182EA91E009951092C2010ACF1092E2
:10111000190234CF1F920F920FB60F9211242F9302
:101120003F938F939F93AF93BF938091C30190910F
:10113000C401A091C501B091C6013091540123E0D2
:10114000230F2D3758F50196A11DB11D2093540191
:101150008093C3019093C401A093C501B093C601CD
:101160008091550190915601A0915701B09158017D
:101170000196A11DB11D8093550190935601A09336
:101180005701B0935801BF91AF919F918F913F91BB
:101190002F910F900FBE0F901F90189526E8230FE8
:1011A0000296A11DB11DD2CF1F920F920FB60F92C2
:1011B00011242F933F934F935F936F937F938F935C
:1011C0009F93AF93BF93EF93FF9381E592E00E94CB
:1011D0002A02FF91EF91BF91AF919F918F917F91E3
:1011E0006F915F914F913F912F910F900FBE0F9094
:1011F0001F9018951F920F920FB60F9211242F93E4
:101200008F939F93EF93FF93E0916102F0916202BD
:101210008081E0916702F091680282FD1BC090819D
:1012200080916A028F5F8F7320916B02821741F069
:10123000E0916A02F0E0EF5AFD4F958F80936A02C9
:10124000FF91EF919F918F912F910F900FBE0F9073
:101250001F9018958081F4CF109248021092470297
:1012600088EE93E0A0E0B0E08093490290934A02B8
:10127000A0934B02B0934C0222E331E0309346023C
:10128000209345021092540210925302809355020B
:1012900090935602A0935702B093580284E491E0D1
:1012A000909352028093510285EC90E090935E02FD
:1012B00080935D0284EC90E09093600280935F02E3
:1012C00080EC90E0909362028093610281EC90E068
:1012D000909364028093630282EC90E090936602A4
:1012E0008093650286EC90E0909368028093670299
:1012F00010926A0210926B0210926C0210926D02B0
:10130000E1E0F3E0158214821682128211821082CB
:10131000379683E0ED31F807A9F710922903109270
:101320002C03109228031092270310923D03109271
:10133000400310923C0310923B03E6E4F3E08EE797
:1013400093E01482138215821082168237968E17CC
:101350009F07B9F780E68093FE0280934503809152
:101360004B03811110C08EEF92E090934A0380935B
:101370004903109246038091FF02909100039093DD
:1013800048038093470386E493E09093FD028093A3
:10139000FC0280915203811113C081E080935203BB
:1013A0002EEF32E0309351032093500380934D038E
:1013B0008091FF029091000390934F0380934E031E
:1013C0008DE493E09093FB028093FA02809159039D
:1013D000811113C082E0809359032EEF32E03093E5
:1013E000580320935703809354038091FF029091F8
:1013F0000003909356038093550384E593E0909304
:10140000F9028093F80280916003811113C083E098
:10141000809360032EEF32E030935F0320935E03EE
:1014200080935B038091FF029091000390935D0392
:1014300080935C038BE593E09093F7028093F60230
:1014400080910E0381110FC081E080930E038EEF17
:1014500092E090930D0380930C038CE0809309033A
:101460008DE080930A0388E093E09093F5028093E7
:10147000F40280911C0381110FC083E080931C0350
:101480008EEF92E090931B0380931A038AE080937F
:1014900017038BE08093180386E193E09093F302A7
:1014A0008093F2028091070381110CC08EEF92E0CD
:1014B00090930603809305038EE0809302038FE0F0
:1014C0008093030381E093E09093F1028093F00214
:1014D0008091150381110FC082E0809315038EEF78
:1014E00092E0909314038093130388E08093100399
:1014F00089E0809311038FE093E09093EF02809353
:10150000EE020895CF93DF93CDB7DEB729970FB6DC
:10151000F894DEBF0FBECDBF789484B5826084BDE1
:1015200084B5816084BD85B5826085BD85B58160E7
:1015300085BD80916E00816080936E001092810065
:101540008091810082608093810080918100816020
:1015500080938100809180008160809380008091E1
:10156000B10084608093B1008091B000816080936D
:10157000B00080917A00846080937A0080917A0034
:10158000826080937A0080917A00816080937A00F3
:1015900080917A00806880937A001092C100109246
:1015A0007A011092790110922202109244020E9454
:1015B000190380E691E090939D0180939C0181E660
:1015C00091E09093A1018093A0010E94190360E033
:1015D00080E00E94D20482E390E090930003809325
:1015E000FF028091450391E0909321028093430292
:1015F000109222021092440260E085E492E00E9480
:10160000B90181E00E94AE03109145030E94890355
:101610006B017C0180911B02811164C081E0809389
:101620001B0280931A029FEF9093190210921802E6
:10163000109217028093F6018091F601110F182B7A
:101640001093F6018091F501813009F07BC1109271
:10165000F5010E9489036B017C018091F601809362
:10166000BB0080911D0290911E02A0911F02B091BB
:101670002002892B8A2B8B2BA1F00E9489030091D9
:101680001D0210911E0220911F02309120026C1940
:101690007D098E099F09061717072807390708F4DF
:1016A00042C08091BC0083FDD8CF85EC8093BC0004
:1016B0000E9489036B017C0180911B02813009F437
:1016C00043C180911802811161C180911802A7EF76
:1016D000B1E0E9E5F1E090E0981751F12D91219307
:1016E0009F5FFACF80911D0290911E02A0911F0270
:1016F000B0912002892B8A2B8B2B09F48BCF0E946F
:10170000890380901D0290901E02A0901F02B0904D
:1017100020026C197D098E099F0986169706A80676
:10172000B90608F077CF80911C020E94370380E051
:1017300010927A018093790185E492E00E9472010F
:10174000182F682F6F76606180E00E94D20467E8EE
:101750008EEF0E94D204612F80E00E94D20465E0E7
:1017600070E080E090E00E94ED04612F616A80E00B
:101770000E94D20410E030E020E050E040E0612F11
:1017800085E493E00E949E041F5F1031A1F7E6EA12
:101790004E2EE0E05E2EF2E96F2EF0E07F2EA7E005
:1017A000CA2ED12CBEE28B2EB1E09B2EE7EAF0E0F0
:1017B00084918093E101E3E9F0E08491E82FF0E087
:1017C000EE0FFF1FE458FF4F859194919093E30132
:1017D0008093E201E5EAF0E084918093E401E1E99D
:1017E000F0E08491E82FF0E0EE0FFF1FE458FF4F88
:1017F000859194919093E6018093E501E4EAF0E00D
:1018000084918093E701E0E9F0E08491E82FF0E033
:10181000EE0FFF1FE458FF4F859194919093E901DB
:101820008093E801F20184918093EA01F3018491AD
:10183000E82FF0E0EE0FFF1FE859FF4F85919491DC
:101840009093EC018093EB0161E08DE00E945803DE
:1018500061E08AE00E94580361E08BE00E94580337
:1018600060E08CE00E94580361E08CE00E94CD02B1
:101870000E949B000E94AA000E94D5050E94D505E7
:101880008091C801813429F0833719F0893709F034
:101890007FC081E08093F1010BE010E033243394AA
:1018A00065E080E291E00E942005C6010197F1F712
:1018B0000E949B000E94AA000E942901C601019774
:1018C000F1F735E2E32E31E0F32ECE0101965C0113
:1018D000F70181917F010E94B900F50181935F01B9
:1018E0008E149F04A9F70E948C008C818093F201D2
:1018F00069E087E191E00E94200565E082E191E0E6
:101900000E9420053092F30169E089E091E00E9495
:1019100020053092F40169E080E091E00E9420050A
:101920000E94D5058091C801893709F47AC18337AF
:1019300079F10150110961F18091F1018F5F80937C
:10194000F101AECF85EEB2CE80911D0290911E02C4
:10195000A0911F02B0912002892B8A2B8B2B09F4B6
:10196000ABCE0E94890300911D0210911E022091AE
:101970001F02309120026C197D098E099F090617FC
:1019800017072807390708F097CECDCE81E09FCE04
:1019900064E670E080E090E00E94ED0407CFC701AC
:1019A0000E942E0761E0C7010E94CA06E090F4027F
:1019B000F090F5026D2DC7010E942E0761E0C7016E
:1019C0000E94CA066D2DC8010E942E0761E0C80161
:1019D0000E94CA060091F2021091F30278C186FFBC
:1019E00040C0D09052010091F4021091F50290FD98
:1019F0002BC0E090F002F090F1020091EE02109105
:101A0000EF026D2D91FF0DC0C7010E942E0762E00D
:101A1000C7010E94CA066D2DC8010E942E0762E010
:101A20005BC1C7010E942E0762E0C7010E94CA067F
:101A3000E090F402F090F5026D2DC7010E942E0790
:101A400062E0C7010E94CA066D2DC8010E942E07E0
:101A500062E0C8010E94CA060091F2021091F302EE
:101A6000DACFA090F002B090F102C090F402D090D2
:101A7000F502E090EE02F090EF020091F202109178
:101A8000F30287FF1CC030905201632DC5010E94F4
:101A90002E0762E0C5010E94CA06632DC6010E949E
:101AA0002E0762E0C6010E94CA06632DC7010E948C
:101AB0002E0761E0C7010E94CA06632D09C185FF98
:101AC0001CC030905201632DC5010E942E0761E0B9
:101AD000C5010E94CA06632DC6010E942E0761E05F
:101AE000C6010E94CA06632DC7010E942E0762E04C
:101AF000C7010E94CA06632D8FCF92FF18C0309095
:101B00005201632DC5010E942E0762E0C5010E94AB
:101B1000CA06632DC6010E942E0761E0C6010E941D
:101B2000CA06632DC7010E942E0762E0C3CF93FF50
:101B300018C030905201632DC5010E942E0761E04C
:101B4000C5010E94CA06632DC6010E942E0762E0ED
:101B5000C6010E94CA06632DC7010E942E0761E0DC
:101B6000C7CF60E0C5010E942E0764E0C5010E9456
:101B7000CA0660E0C6010E942E0764E0C6010E940A
:101B8000CA0660E0C7010E942E0764E0C7010E94F8
:101B9000CA0660E0C8010E942E0764E09DC07092F2
:101BA000530160925201B1C05092530140925201D0
:101BB000BCC08A3008F0C9C08091FC029091FD023F
:101BC000FC0166816A3A08F0C0C06F5FBCC08A3011
:101BD00008F0CBC08091FA029091FB02FC01668173
:101BE0006C3808F0C2C06F5FBEC08A3008F0CDC04C
:101BF0008091F8029091F902FC0166816A3A08F03E
:101C0000C4C06F5FC0C08A3008F0CFC08091F602B8
:101C10009091F702FC016681663608F0C6C06F5FDE
:101C2000C2C088EC90E090935301809352016AE522
:101C30008091FC029091FD020E94A6056AE58091C8
:101C4000FA029091FB020E94A6056AE58091F802D3
:101C50009091F9020E94A6056CE38091F6029091A2
:101C6000F7020E94A60580E0882E80E0982E9AE078
:101C7000692E712C44244A94512C0E94D5056EE1A2
:101C800070E080E090E00E94ED048091DF0190918F
:101C9000E0018095909584FFA2CED09052010091F2
:101CA000F4021091F50290FD8DCEE090F002F090DC
:101CB000F1020091EE021091EF026D2D91FF6FCEB7
:101CC000C7010E942E0761E0C7010E94CA066D2D60
:101CD000C8010E942E0761E0C8010E94CA068091D7
:101CE000DF019091E0018095909596FF0EC02091C4
:101CF000520130915301255031092B3031050CF43C
:101D00004ECF309353012093520194FF0EC0809127
:101D100052019091530105968F3F910511F00CF0FF
:101D200043CF90935301809352018091CE01813F24
:101D300008F43FCF8091FC029091FD02FC01668186
:101D40006B3018F061500E94A6058091CF01813F51
:101D500008F43DCF8091FA029091FB02FC0166816C
:101D60006B3018F061500E94A6058091CD01813F33
:101D700008F43BCF8091F8029091F902FC01668152
:101D8000693218F061500E94A6058091CC01813F14
:101D900008F439CF8091F6029091F702FC01668138
:101DA0006B3018F061500E94A60562E070E080E0A0
:101DB00090E00E94ED048114910409F45ECF0E942A
:101DC000B902882309F459CF0E94000056CFEE0FC4
:101DD000FF1F0590F491E02D09945058BB27AA27C6
:101DE0000E94050F0C9478100E946A1038F00E942F
:101DF000711020F039F49F3F19F426F40C94671009
:101E00000EF4E095E7FB0C946110E92F0E94891015
:101E100058F3BA17620773078407950720F079F41F
:101E2000A6F50C94AB100EF4E0950B2EBA2FA02D56
:101E30000B01B90190010C01CA01A0011124FF2777
:101E4000591B99F0593F50F4503E68F11A16F04072
:101E5000A22F232F342F4427585FF3CF4695379571
:101E60002795A795F0405395C9F77EF41F16BA0B36
:101E7000620B730B840BBAF09150A1F0FF0FBB1FE4
:101E8000661F771F881FC2F70EC0BA0F621F731F2D
:101E9000841F48F4879577956795B795F7959E3F8A
:101EA00008F0B0CF9395880F08F09927EE0F97951B
:101EB000879508950E943D1008F481E008950E94DE
:101EC000730F0C9478100E94711058F00E946A10E1
:101ED00040F029F45F3F29F00C94611051110C94EB
:101EE000AC100C9467100E94891068F39923B1F329
:101EF000552391F3951B550BBB27AA276217730730
:101F0000840738F09F5F5F4F220F331F441FAA1FC3
:101F1000A9F335D00E2E3AF0E0E832D0915050407F
:101F2000E695001CCAF72BD0FE2F29D0660F771F2D
:101F3000881FBB1F261737074807AB07B0E809F013
:101F4000BB0B802DBF01FF2793585F4F3AF09E3F98
:101F5000510578F00C9461100C94AC105F3FE4F3E1
:101F6000983ED4F3869577956795B795F7959F5FDB
:101F7000C9F7880F911D9695879597F90895E1E027
:101F8000660F771F881FBB1F621773078407BA0786
:101F900020F0621B730B840BBA0BEE1F88F7E095E1
:101FA00008950E94911088F09F5798F0B92F9927B3
:101FB000B751B0F0E1F0660F771F881F991F1AF034
:101FC000BA95C9F714C0B13091F00E94AB10B1E0DE
:101FD00008950C94AB10672F782F8827B85F39F0DD
:101FE000B93FCCF3869577956795B395D9F73EF4CD
:101FF00090958095709561957F4F8F4F9F4F089575
:10200000E89409C097FB3EF4909580957095619592
:102010007F4F8F4F9F4F9923A9F0F92F96E9BB2748
:102020009395F695879577956795B795F111F8CFC4
:10203000FAF4BB0F11F460FF1BC06F5F7F4F8F4F2F
:102040009F4F16C0882311F096E911C0772321F025
:102050009EE8872F762F05C0662371F096E8862FBD
:1020600070E060E02AF09A95660F771F881FDAF714
:10207000880F9695879597F90895990F0008550F41
:10208000AA0BE0E8FEEF16161706E807F907C0F0FE
:1020900012161306E407F50798F0621B730B840B06
:1020A000950B39F40A2661F0232B242B252B21F4E0
:1020B00008950A2609F4A140A6958FEF811D811D80
:1020C000089597F99F6780E870E060E008959FEFBA
:1020D00080EC089500240A941616170618060906BF
:1020E000089500240A94121613061406050608958E
:1020F000092E0394000C11F4882352F0BB0F40F416
:10210000BF2B11F460FF04C06F5F7F4F8F4F9F4F55
:10211000089557FD9058440F551F59F05F3F71F0D7
:102120004795880F97FB991F61F09F3F79F087953E
:102130000895121613061406551FF2CF4695F1DFC7
:1021400008C0161617061806991FF1CF8695710557
:10215000610508940895E894BB2766277727CB018B
:1021600097F908950E943D1008F48FEF08950E949A
:10217000CA100C9478100E946A1038F00E947110F6
:1021800020F0952311F00C9461100C946710112429
:102190000C94AC100E94891070F3959FC1F3950FB9
:1021A00050E0551F629FF001729FBB27F00DB11DDB
:1021B000639FAA27F00DB11DAA1F649F6627B00D6B
:1021C000A11D661F829F2227B00DA11D621F739F54
:1021D000B00DA11D621F839FA00D611D221F749F62
:1021E0003327A00D611D231F849F600D211D822FA9
:1021F000762F6A2F11249F5750409AF0F1F08823D0
:102200004AF0EE0FFF1FBB1F661F771F881F9150FC
:102210005040A9F79E3F510580F00C9461100C943A
:10222000AC105F3FE4F3983ED4F3869577956795BD
:10223000B795F795E7959F5FC1F7FE2B880F911D26
:0C2240009695879597F90895F894FFCFC4
:10224C00014300005A5A5A5A5A014F00FFFF03002B
:10225C000000014D000001014400010300000000DA
:10226C0001430001000145005A5A5A5A5A5A0000BB
:10227C000000B9018C0193056201850172016301B3
:10228C00000000004C026605ED0199021E02FC01E3
:02229C0010022E
:00000001FF
